{
  "contractName": "Auction",
  "abi": [
    {
      "constant": true,
      "inputs": [],
      "name": "beneficiary",
      "outputs": [
        {
          "name": "",
          "type": "address"
        }
      ],
      "payable": false,
      "stateMutability": "view",
      "type": "function"
    },
    {
      "constant": true,
      "inputs": [],
      "name": "bidderCount",
      "outputs": [
        {
          "name": "",
          "type": "uint256"
        }
      ],
      "payable": false,
      "stateMutability": "view",
      "type": "function"
    },
    {
      "constant": true,
      "inputs": [],
      "name": "flag",
      "outputs": [
        {
          "name": "",
          "type": "uint256"
        }
      ],
      "payable": false,
      "stateMutability": "view",
      "type": "function"
    },
    {
      "constant": true,
      "inputs": [
        {
          "name": "",
          "type": "uint256"
        }
      ],
      "name": "winners",
      "outputs": [
        {
          "name": "",
          "type": "address"
        }
      ],
      "payable": false,
      "stateMutability": "view",
      "type": "function"
    },
    {
      "constant": true,
      "inputs": [
        {
          "name": "",
          "type": "uint256"
        }
      ],
      "name": "items",
      "outputs": [
        {
          "name": "itemId",
          "type": "uint256"
        },
        {
          "name": "currentbid",
          "type": "uint256"
        },
        {
          "name": "baseprice",
          "type": "uint256"
        }
      ],
      "payable": false,
      "stateMutability": "view",
      "type": "function"
    },
    {
      "inputs": [],
      "payable": true,
      "stateMutability": "payable",
      "type": "constructor"
    },
    {
      "anonymous": false,
      "inputs": [
        {
          "indexed": true,
          "name": "id",
          "type": "uint256"
        }
      ],
      "name": "win",
      "type": "event"
    },
    {
      "constant": false,
      "inputs": [],
      "name": "register",
      "outputs": [],
      "payable": true,
      "stateMutability": "payable",
      "type": "function"
    },
    {
      "constant": false,
      "inputs": [
        {
          "name": "_itemId",
          "type": "uint256"
        },
        {
          "name": "_count",
          "type": "uint256"
        }
      ],
      "name": "bid",
      "outputs": [],
      "payable": true,
      "stateMutability": "payable",
      "type": "function"
    },
    {
      "constant": false,
      "inputs": [],
      "name": "revealWinners",
      "outputs": [],
      "payable": false,
      "stateMutability": "nonpayable",
      "type": "function"
    }
  ],
  "bytecode": "0x6080604052600080556000601e55606033601d60006101000a81548173ffffffffffffffffffffffffffffffffffffffff021916908373ffffffffffffffffffffffffffffffffffffffff1602179055506080604051908101604052806000815260200160008152602001610dac815260200182815250600e600060038110151561008657fe5b6004020160008201518160000155602082015181600101556040820151816002015560608201518160030190805190602001906100c49291906101be565b509050506080604051908101604052806001815260200160008152602001611fa4815260200182815250600e60016003811015156100fe57fe5b60040201600082015181600001556020820151816001015560408201518160020155606082015181600301908051906020019061013c9291906101be565b509050506080604051908101604052806002815260200160008152602001611af4815260200182815250600e600260038110151561017657fe5b6004020160008201518160000155602082015181600101556040820151816002015560608201518160030190805190602001906101b49291906101be565b5090505050610230565b8280548282559060005260206000209081019282156101fa579160200282015b828111156101f95782518255916020019190600101906101de565b5b509050610207919061020b565b5090565b61022d91905b80821115610229576000816000905550600101610211565b5090565b90565b6109598061023f6000396000f30060806040526004361061008e576000357c0100000000000000000000000000000000000000000000000000000000900463ffffffff1680631aa3a0081461009357806338af3eed1461009d578063598647f8146100f457806370d29c111461011e578063890eba6814610149578063952587d614610174578063a2fb11751461018b578063bfb231d2146101f8575b600080fd5b61009b610247565b005b3480156100a957600080fd5b506100b26103ef565b604051808273ffffffffffffffffffffffffffffffffffffffff1673ffffffffffffffffffffffffffffffffffffffff16815260200191505060405180910390f35b61011c6004803603810190808035906020019092919080359060200190929190505050610415565b005b34801561012a57600080fd5b50610133610712565b6040518082815260200191505060405180910390f35b34801561015557600080fd5b5061015e610718565b6040518082815260200191505060405180910390f35b34801561018057600080fd5b5061018961071e565b005b34801561019757600080fd5b506101b6600480360381019080803590602001909291905050506108c9565b604051808273ffffffffffffffffffffffffffffffffffffffff1673ffffffffffffffffffffffffffffffffffffffff16815260200191505060405180910390f35b34801561020457600080fd5b50610223600480360381019080803590602001909291905050506108fe565b60405180848152602001838152602001828152602001935050505060405180910390f35b601e546002601e5460048110151561025b57fe5b6003020160010181905550336002601e5460048110151561027857fe5b6003020160020160006101000a81548173ffffffffffffffffffffffffffffffffffffffff021916908373ffffffffffffffffffffffffffffffffffffffff16021790555061c3506002601e546004811015156102d157fe5b60030201600001819055506002601e546004811015156102ed57fe5b60030201600160003373ffffffffffffffffffffffffffffffffffffffff1673ffffffffffffffffffffffffffffffffffffffff16815260200190815260200160002060008201548160000155600182015481600101556002820160009054906101000a900473ffffffffffffffffffffffffffffffffffffffff168160020160006101000a81548173ffffffffffffffffffffffffffffffffffffffff021916908373ffffffffffffffffffffffffffffffffffffffff1602179055506002820160149054906101000a900460ff168160020160146101000a81548160ff021916908315150217905550905050601e60008154809291906001019190505550565b601d60009054906101000a900473ffffffffffffffffffffffffffffffffffffffff1681565b60008060006001600054148061046d57506000600160003373ffffffffffffffffffffffffffffffffffffffff1673ffffffffffffffffffffffffffffffffffffffff16815260200190815260200160002060000154145b806104b9575083600160003373ffffffffffffffffffffffffffffffffffffffff1673ffffffffffffffffffffffffffffffffffffffff16815260200190815260200160002060000154105b806104c45750600285115b806104e45750600e856003811015156104d957fe5b600402016001015484105b806105045750600e856003811015156104f957fe5b600402016002015484105b8061055c57503373ffffffffffffffffffffffffffffffffffffffff16601d60009054906101000a900473ffffffffffffffffffffffffffffffffffffffff1673ffffffffffffffffffffffffffffffffffffffff16145b1561056657600080fd5b83600160003373ffffffffffffffffffffffffffffffffffffffff1673ffffffffffffffffffffffffffffffffffffffff1681526020019081526020016000206000015403915083600e866003811015156105bd57fe5b600402016001018190555081600160003373ffffffffffffffffffffffffffffffffffffffff1673ffffffffffffffffffffffffffffffffffffffff16815260200190815260200160002060000181905550816002600160003373ffffffffffffffffffffffffffffffffffffffff1673ffffffffffffffffffffffffffffffffffffffff1681526020019081526020016000206001015460048110151561066157fe5b6003020160000181905550600e8560038110151561067b57fe5b600402019050600092505b8383101561070b5780600301600160003373ffffffffffffffffffffffffffffffffffffffff1673ffffffffffffffffffffffffffffffffffffffff1681526020019081526020016000206001015490806001815401808255809150509060018203906000526020600020016000909192909190915055508280600101935050610686565b5050505050565b601e5481565b60005481565b6000806000803373ffffffffffffffffffffffffffffffffffffffff16601d60009054906101000a900473ffffffffffffffffffffffffffffffffffffffff1673ffffffffffffffffffffffffffffffffffffffff1614151561078057600080fd5b600093505b600384101561088c57600e8460038110151561079d57fe5b6004020192506000836003018054905014151561087f5782600301805490508360030180549050438115156107ce57fe5b048115156107d857fe5b06915082600301828154811015156107ec57fe5b9060005260206000200154905060028160048110151561080857fe5b6003020160020160009054906101000a900473ffffffffffffffffffffffffffffffffffffffff16601a8560038110151561083f57fe5b0160006101000a81548173ffffffffffffffffffffffffffffffffffffffff021916908373ffffffffffffffffffffffffffffffffffffffff1602179055505b8380600101945050610785565b60016000819055506000547f5bc60cfcafe88466b6c311ed8a9dd10b71eca6f2d7f446fc937ddb277abd0ed760405160405180910390a250505050565b601a816003811015156108d857fe5b016000915054906101000a900473ffffffffffffffffffffffffffffffffffffffff1681565b600e8160038110151561090d57fe5b6004020160009150905080600001549080600101549080600201549050835600a165627a7a7230582055159addc493f063c11c26196c58c77cbab1a68ae75ac54be4df47eb8da822230029",
  "source": "pragma solidity ^0.4.17;\ncontract Auction {\n    \n    \n    struct Item {\n        uint itemId; \n        \n        uint currentbid; \n        uint baseprice;\n        uint[] itemTokens;  \n    }\n    \n    struct Person {\n        uint remainingTokens;\n        uint personId;\n        address addr;\n        bool registered;\n    }\n    uint public flag=0;\n    mapping(address => Person) tokenDetails;\n    Person [4] bidders;\n    \n    Item [3] public items;\n    address[3] public winners;\n    address public beneficiary;\n    \n    uint public bidderCount=0;\n\n    event win (\n        uint indexed id\n        );\n\n    function Auction() public payable{    \n        beneficiary=msg.sender;\n\n        uint[] memory emptyArray;\n        items[0] = Item(0,0,3500,emptyArray);\n        items[1] = Item(1,0,8100,emptyArray);\n        items[2] = Item(2,0,6900,emptyArray);\n    }\n    \n\n    function register() public payable{\n        \n        bidders[bidderCount].personId = bidderCount;\n        \n        bidders[bidderCount].addr=msg.sender;\n        \n        bidders[bidderCount].remainingTokens = 50000; \n        tokenDetails[msg.sender]=bidders[bidderCount];\n        bidderCount++;\n\n    }\n    \n    function bid(uint _itemId, uint _count) public payable{\n         uint i;\n        // for(i=0;i<4;i++){\n        //     if(msg.sender==bidders[i].addr)\n        //         break;\n        //     }\n        // if(i==4){\n        //     register();\n        // }\n\n\n        if(flag==1 || tokenDetails[msg.sender].remainingTokens == 0 || tokenDetails[msg.sender].remainingTokens < _count || _itemId > 2 || _count<items[_itemId].currentbid || _count<items[_itemId].baseprice || beneficiary==msg.sender)\n        {\n            revert();\n        }\n        \n        uint balance=tokenDetails[msg.sender].remainingTokens - _count;\n        \n        items[_itemId].currentbid=_count;\n        tokenDetails[msg.sender].remainingTokens=balance;\n        bidders[tokenDetails[msg.sender].personId].remainingTokens=balance;//updating the same balance in bidders map.\n        \n        Item storage bidItem = items[_itemId];\n        for( i=0; i<_count;i++) {\n            bidItem.itemTokens.push(tokenDetails[msg.sender].personId);    \n        }\n    }\n\n\n    modifier onlyOwner {\n        require(beneficiary == msg.sender);\n        _;\n    }\n    \n    \n    function revealWinners() public onlyOwner{\n        \n        \n        for (uint id = 0; id < 3; id++) {\n            Item storage currentItem=items[id];\n\n            if(currentItem.itemTokens.length != 0){\n\n            uint randomIndex = (block.number / currentItem.itemTokens.length)% currentItem.itemTokens.length; \n            uint winnerId = currentItem.itemTokens[randomIndex];\n            winners[id]=bidders[winnerId].addr;\n                \n            }\n        }\n        flag=1;\n        win(flag);\n    } \n\n}\n",
  "sourcePath": "G:\\Blockchain\\Smart_City\\contracts\\Auction.sol",
  "compiler": {
    "name": "solc",
    "version": "0.4.24+commit.e67f0147.Emscripten.clang"
  },
  "schemaVersion": "2.0.1",
  "updatedAt": "2018-12-22T04:38:43.640Z"
}