{
  "contractName": "Bill",
  "abi": [
    {
      "constant": true,
      "inputs": [],
      "name": "buildingcount",
      "outputs": [
        {
          "name": "",
          "type": "uint256"
        }
      ],
      "payable": false,
      "stateMutability": "view",
      "type": "function"
    },
    {
      "constant": true,
      "inputs": [
        {
          "name": "",
          "type": "uint256"
        }
      ],
      "name": "Buildings",
      "outputs": [
        {
          "name": "id",
          "type": "uint256"
        },
        {
          "name": "tank_capacity",
          "type": "uint256"
        },
        {
          "name": "balance",
          "type": "uint256"
        },
        {
          "name": "billamount",
          "type": "uint256"
        }
      ],
      "payable": false,
      "stateMutability": "view",
      "type": "function"
    },
    {
      "inputs": [],
      "payable": false,
      "stateMutability": "nonpayable",
      "type": "constructor"
    },
    {
      "anonymous": false,
      "inputs": [
        {
          "indexed": true,
          "name": "_id",
          "type": "uint256"
        }
      ],
      "name": "calculated",
      "type": "event"
    },
    {
      "constant": false,
      "inputs": [
        {
          "name": "i",
          "type": "uint256"
        },
        {
          "name": "capacity",
          "type": "uint256"
        },
        {
          "name": "quality",
          "type": "uint256"
        }
      ],
      "name": "calculate",
      "outputs": [],
      "payable": false,
      "stateMutability": "nonpayable",
      "type": "function"
    },
    {
      "constant": false,
      "inputs": [],
      "name": "call",
      "outputs": [],
      "payable": false,
      "stateMutability": "nonpayable",
      "type": "function"
    }
  ],
  "bytecode": "0x608060405234801561001057600080fd5b5061003060326127106107d0610073640100000000026401000000009004565b61004f603c612710610bb8610073640100000000026401000000009004565b61006e6046612710610fa0610073640100000000026401000000009004565b6100ed565b600160008154809291906001019190505550608060405190810160405280600154815260200184815260200183815260200182815250600080600154815260200190815260200160002060008201518160000155602082015181600101556040820151816002015560608201518160030155905050505050565b610291806100fc6000396000f300608060405260043610610062576000357c0100000000000000000000000000000000000000000000000000000000900463ffffffff16806328b5e32b146100675780635338bb401461007e578063ae508229146100a9578063e97cf883146100ff575b600080fd5b34801561007357600080fd5b5061007c610140565b005b34801561008a57600080fd5b5061009361019d565b6040518082815260200191505060405180910390f35b3480156100b557600080fd5b506100d4600480360381019080803590602001909291905050506101a3565b6040518085815260200184815260200183815260200182815260200194505050505060405180910390f35b34801561010b57600080fd5b5061013e6004803603810190808035906020019092919080359060200190929190803590602001909291905050506101d3565b005b61014f6001601e6101c26101d3565b61015e6002603261015e6101d3565b61016d600360456101906101d3565b60017f53cf2146a7f60503e9fc1b6ce90211363109aebadc8ef3ecfa35d142c84df20860405160405180910390a2565b60015481565b60006020528060005260406000206000915090508060000154908060010154908060020154908060030154905084565b600080600080925060148560008089815260200190815260200160002060010154030291506002846101900302905060008211156102115781830192505b60008111156102205780830192505b826000808881526020019081526020016000206003015403925082600080888152602001908152602001600020600201600082825403925050819055505050505050505600a165627a7a72305820ea03ee4d0c523303c53275db5122c4485a9d2443d2fa508f5b5cd9e7b4a383ea0029",
  "source": "pragma solidity 0.4.24;\r\n\r\ncontract Bill {\r\n    \r\n   struct building{\r\n        uint id;\r\n        uint tank_capacity;\r\n        uint balance;\r\n        uint billamount;\r\n    }\r\n    \r\n    mapping(uint=>building) public Buildings;\r\n\r\n    uint public buildingcount;\r\n\r\n    event calculated (\r\n        uint indexed _id\r\n    );\r\n\r\n    function Bill() public {\r\n        addBuilding(50,10000,2000);\r\n        addBuilding(60,10000,3000);\r\n        addBuilding(70,10000,4000);\r\n        }\r\n\r\n    function addBuilding (uint _capacity, uint _balance, uint _amount) private {\r\n        buildingcount ++;\r\n        Buildings[buildingcount] = building(buildingcount,_capacity,_balance,_amount);\r\n    }\r\n\r\n    function calculate (uint i, uint capacity, uint quality) public {\r\n            uint amount=0;\r\n            uint capfactor=(Buildings[i].tank_capacity-capacity)*20;\r\n            uint qfactor=(400-quality)*2;\r\n            if(capfactor>0)\r\n            {\r\n                amount+=capfactor;\r\n            }\r\n            if(qfactor>0)\r\n            {\r\n                amount+=qfactor;\r\n            }\r\n            amount=Buildings[i].billamount-amount;\r\n            Buildings[i].balance-=amount;\r\n    }\r\n    function call() public {\r\n        calculate(1,30,450);\r\n        calculate(2,50,350);\r\n        calculate(3,69,400);\r\n        calculated(1);\r\n    }\r\n\r\n}",
  "sourcePath": "G:\\Blockchain\\Smart_City\\contracts\\Bill.sol",
  "compiler": {
    "name": "solc",
    "version": "0.4.24+commit.e67f0147.Emscripten.clang"
  },
  "schemaVersion": "2.0.1",
  "updatedAt": "2018-12-22T04:38:43.631Z"
}