{
  "contractName": "Grievance",
  "abi": [
    {
      "constant": true,
      "inputs": [
        {
          "name": "",
          "type": "address"
        },
        {
          "name": "",
          "type": "uint256"
        }
      ],
      "name": "citizens",
      "outputs": [
        {
          "name": "id",
          "type": "uint256"
        },
        {
          "name": "name",
          "type": "string"
        },
        {
          "name": "count",
          "type": "uint256"
        },
        {
          "name": "b",
          "type": "bool"
        },
        {
          "name": "fund",
          "type": "uint256"
        }
      ],
      "payable": false,
      "stateMutability": "view",
      "type": "function"
    },
    {
      "constant": true,
      "inputs": [
        {
          "name": "",
          "type": "uint256"
        }
      ],
      "name": "Problems",
      "outputs": [
        {
          "name": "id",
          "type": "uint256"
        },
        {
          "name": "name",
          "type": "string"
        },
        {
          "name": "count",
          "type": "uint256"
        },
        {
          "name": "b",
          "type": "bool"
        },
        {
          "name": "fund",
          "type": "uint256"
        }
      ],
      "payable": false,
      "stateMutability": "view",
      "type": "function"
    },
    {
      "constant": true,
      "inputs": [],
      "name": "govt_fund",
      "outputs": [
        {
          "name": "",
          "type": "uint256"
        }
      ],
      "payable": false,
      "stateMutability": "view",
      "type": "function"
    },
    {
      "constant": true,
      "inputs": [],
      "name": "ministry",
      "outputs": [
        {
          "name": "addr",
          "type": "address"
        },
        {
          "name": "fund",
          "type": "uint256"
        }
      ],
      "payable": false,
      "stateMutability": "view",
      "type": "function"
    },
    {
      "constant": true,
      "inputs": [],
      "name": "problemCount",
      "outputs": [
        {
          "name": "",
          "type": "uint256"
        }
      ],
      "payable": false,
      "stateMutability": "view",
      "type": "function"
    },
    {
      "inputs": [],
      "payable": false,
      "stateMutability": "nonpayable",
      "type": "constructor"
    },
    {
      "anonymous": false,
      "inputs": [
        {
          "indexed": true,
          "name": "_nos",
          "type": "uint256"
        }
      ],
      "name": "votedEvent",
      "type": "event"
    },
    {
      "constant": false,
      "inputs": [
        {
          "name": "_nos",
          "type": "uint256"
        }
      ],
      "name": "vote",
      "outputs": [],
      "payable": false,
      "stateMutability": "nonpayable",
      "type": "function"
    }
  ],
  "bytecode": "0x608060405234801561001057600080fd5b5061005e6040805190810160405280600f81526020017f506f74686f6c6573204d656e6163650000000000000000000000000000000000815250610115640100000000026401000000009004565b6100ab6040805190810160405280601781526020017f466c6f6f646c6967687473204d616c66756e6374696f6e000000000000000000815250610115640100000000026401000000009004565b6100f86040805190810160405280601081526020017f4d6f73717569746f2050726f626c656d00000000000000000000000000000000815250610115640100000000026401000000009004565b61c350600060010181905550600060010154600581905550610271565b60026000815480929190600101919050555060a06040519081016040528060025481526020018281526020016000815260200160001515815260200160008152506004600060025481526020019081526020016000206000820151816000015560208201518160010190805190602001906101919291906101cc565b506040820151816002015560608201518160030160006101000a81548160ff0219169083151502179055506080820151816004015590505050565b828054600181600116156101000203166002900490600052602060002090601f016020900481019282601f1061020d57805160ff191683800117855561023b565b8280016001018555821561023b579182015b8281111561023a57825182559160200191906001019061021f565b5b509050610248919061024c565b5090565b61026e91905b8082111561026a576000816000905550600101610252565b5090565b90565b61086c806102806000396000f300608060405260043610610078576000357c0100000000000000000000000000000000000000000000000000000000900463ffffffff1680630121b93f1461007d5780632d6cfaa4146100aa5780635854a375146101905780636c4a1df8146102565780637a84d834146102815780639115e71b146102df575b600080fd5b34801561008957600080fd5b506100a86004803603810190808035906020019092919050505061030a565b005b3480156100b657600080fd5b506100f5600480360381019080803573ffffffffffffffffffffffffffffffffffffffff1690602001909291908035906020019092919050505061058e565b604051808681526020018060200185815260200184151515158152602001838152602001828103825286818151815260200191508051906020019080838360005b83811015610151578082015181840152602081019050610136565b50505050905090810190601f16801561017e5780820380516001836020036101000a031916815260200191505b50965050505050505060405180910390f35b34801561019c57600080fd5b506101bb6004803603810190808035906020019092919050505061067b565b604051808681526020018060200185815260200184151515158152602001838152602001828103825286818151815260200191508051906020019080838360005b838110156102175780820151818401526020810190506101fc565b50505050905090810190601f1680156102445780820380516001836020036101000a031916815260200191505b50965050505050505060405180910390f35b34801561026257600080fd5b5061026b610756565b6040518082815260200191505060405180910390f35b34801561028d57600080fd5b5061029661075c565b604051808373ffffffffffffffffffffffffffffffffffffffff1673ffffffffffffffffffffffffffffffffffffffff1681526020018281526020019250505060405180910390f35b3480156102eb57600080fd5b506102f461078e565b6040518082815260200191505060405180910390f35b60046000828152602001908152602001600020600360003373ffffffffffffffffffffffffffffffffffffffff1673ffffffffffffffffffffffffffffffffffffffff1681526020019081526020016000208260038110151561036957fe5b60050201600082015481600001556001820181600101908054600181600116156101000203166002900461039e929190610794565b50600282015481600201556003820160009054906101000a900460ff168160030160006101000a81548160ff02191690831515021790555060048201548160040155905050600360003373ffffffffffffffffffffffffffffffffffffffff1673ffffffffffffffffffffffffffffffffffffffff1681526020019081526020016000208160038110151561042f57fe5b6005020160030160009054906101000a900460ff1615151561045057600080fd5b60008111801561046257506002548111155b151561046d57600080fd5b6001600360003373ffffffffffffffffffffffffffffffffffffffff1673ffffffffffffffffffffffffffffffffffffffff168152602001908152602001600020826003811015156104bb57fe5b6005020160030160006101000a81548160ff02191690831515021790555060046000828152602001908152602001600020600201600081548092919060010191905055506002600460008381526020019081526020016000206002015410151561058b576005805481151561052c57fe5b046004600083815260200190815260200160002060040181905550600460008281526020019081526020016000205060016004600083815260200190815260200160002060030160006101000a81548160ff0219169083151502179055505b50565b6003602052816000526040600020816003811015156105a957fe5b6005020160009150915050806000015490806001018054600181600116156101000203166002900480601f0160208091040260200160405190810160405280929190818152602001828054600181600116156101000203166002900480156106525780601f1061062757610100808354040283529160200191610652565b820191906000526020600020905b81548152906001019060200180831161063557829003601f168201915b5050505050908060020154908060030160009054906101000a900460ff16908060040154905085565b6004602052806000526040600020600091509050806000015490806001018054600181600116156101000203166002900480601f01602080910402602001604051908101604052809291908181526020018280546001816001161561010002031660029004801561072d5780601f106107025761010080835404028352916020019161072d565b820191906000526020600020905b81548152906001019060200180831161071057829003601f168201915b5050505050908060020154908060030160009054906101000a900460ff16908060040154905085565b60055481565b60008060000160009054906101000a900473ffffffffffffffffffffffffffffffffffffffff16908060010154905082565b60025481565b828054600181600116156101000203166002900490600052602060002090601f016020900481019282601f106107cd578054855561080a565b8280016001018555821561080a57600052602060002091601f016020900482015b828111156108095782548255916001019190600101906107ee565b5b509050610817919061081b565b5090565b61083d91905b80821115610839576000816000905550600101610821565b5090565b905600a165627a7a723058207f36833ef0aa4d7bd73310ac7375dc98398533b7f7a3e1591d37a1774ae221620029",
  "source": "pragma solidity 0.4.24;\r\n\r\ncontract Grievance {\r\n\r\n   struct assigned_ministry {\r\n\r\n        address addr;\r\n        uint fund;\r\n    }\r\n     \r\n    assigned_ministry public ministry;\r\n\r\n    struct Problem {\r\n        uint id;\r\n        string name;\r\n        uint count;\r\n        bool b;\r\n        uint fund;\r\n    }\r\n\r\n    event votedEvent (\r\n        uint indexed _nos\r\n    );\r\n\r\n    uint public problemCount;\r\n    mapping(address => Problem[3]) public citizens;\r\n    mapping(uint => Problem) public Problems;\r\n    uint public govt_fund;\r\n\r\n\r\n    function Grievance () public {\r\n\r\n        addProblem(\"Potholes Menace\");\r\n        addProblem(\"Floodlights Malfunction\");\r\n        addProblem(\"Mosquito Problem\");\r\n        ministry.fund=50000;\r\n        govt_fund=ministry.fund;\r\n        \r\n    }\r\n\r\n    function addProblem (string _name) private {\r\n\r\n        problemCount ++;\r\n        Problems[problemCount] = Problem(problemCount, _name, 0,false,0);\r\n\r\n    }\r\n\r\n    function vote (uint _nos) public {\r\n       \r\n       citizens[msg.sender][_nos]=Problems[_nos];\r\n       require(!citizens[msg.sender][_nos].b);\r\n       require(_nos > 0 && _nos <= problemCount);\r\n       citizens[msg.sender][_nos].b = true;\r\n       Problems[_nos].count ++;\r\n       if(Problems[_nos].count>=2){\r\n            Problems[_nos].fund=govt_fund/5;\r\n            ministry.fund-Problems[_nos].fund;\r\n            Problems[_nos].b=true;\r\n       \r\n       }    \r\n       //votedEvent(_nos);\r\n    }\r\n}",
  "sourcePath": "G:\\Blockchain\\Smart_City\\contracts\\Grievance.sol",
  "compiler": {
    "name": "solc",
    "version": "0.4.24+commit.e67f0147.Emscripten.clang"
  },
  "schemaVersion": "2.0.1",
  "updatedAt": "2018-12-22T04:38:43.644Z"
}