{
  "contractName": "SmartCity",
  "abi": [
    {
      "constant": true,
      "inputs": [],
      "name": "seller",
      "outputs": [
        {
          "name": "personId",
          "type": "address"
        },
        {
          "name": "person_name",
          "type": "string"
        },
        {
          "name": "balance",
          "type": "uint256"
        }
      ],
      "payable": false,
      "stateMutability": "view",
      "type": "function"
    },
    {
      "constant": true,
      "inputs": [
        {
          "name": "",
          "type": "uint256"
        }
      ],
      "name": "rc_arr",
      "outputs": [
        {
          "name": "ownerId",
          "type": "address"
        },
        {
          "name": "owner_name",
          "type": "string"
        },
        {
          "name": "ownership",
          "type": "uint256"
        },
        {
          "name": "car_registration_number",
          "type": "string"
        },
        {
          "name": "maker_model",
          "type": "string"
        },
        {
          "name": "datetoday",
          "type": "string"
        },
        {
          "name": "chassis_number",
          "type": "string"
        }
      ],
      "payable": false,
      "stateMutability": "view",
      "type": "function"
    },
    {
      "constant": true,
      "inputs": [],
      "name": "buyer",
      "outputs": [
        {
          "name": "personId",
          "type": "address"
        },
        {
          "name": "person_name",
          "type": "string"
        },
        {
          "name": "balance",
          "type": "uint256"
        }
      ],
      "payable": false,
      "stateMutability": "view",
      "type": "function"
    },
    {
      "constant": true,
      "inputs": [
        {
          "name": "",
          "type": "uint256"
        }
      ],
      "name": "vehicle_Arr",
      "outputs": [
        {
          "name": "rc_id",
          "type": "string"
        },
        {
          "name": "selling_price",
          "type": "uint256"
        },
        {
          "name": "buyer_id",
          "type": "address"
        },
        {
          "name": "seller_id",
          "type": "address"
        }
      ],
      "payable": false,
      "stateMutability": "view",
      "type": "function"
    },
    {
      "constant": true,
      "inputs": [],
      "name": "noofcars",
      "outputs": [
        {
          "name": "",
          "type": "uint256"
        }
      ],
      "payable": false,
      "stateMutability": "view",
      "type": "function"
    },
    {
      "inputs": [],
      "payable": false,
      "stateMutability": "nonpayable",
      "type": "constructor"
    },
    {
      "anonymous": false,
      "inputs": [
        {
          "indexed": true,
          "name": "price",
          "type": "uint256"
        }
      ],
      "name": "cars",
      "type": "event"
    },
    {
      "constant": false,
      "inputs": [
        {
          "name": "rc_id",
          "type": "string"
        },
        {
          "name": "selling_price",
          "type": "uint256"
        },
        {
          "name": "buyer_id",
          "type": "address"
        }
      ],
      "name": "sell",
      "outputs": [],
      "payable": true,
      "stateMutability": "payable",
      "type": "function"
    },
    {
      "constant": false,
      "inputs": [
        {
          "name": "rc_id",
          "type": "string"
        },
        {
          "name": "seller_id",
          "type": "address"
        },
        {
          "name": "price",
          "type": "uint256"
        }
      ],
      "name": "buy",
      "outputs": [],
      "payable": true,
      "stateMutability": "payable",
      "type": "function"
    }
  ],
  "bytecode": "0x60806040523480156200001157600080fd5b506200001c6200076e565b620000266200076e565b33600660000160006101000a81548173ffffffffffffffffffffffffffffffffffffffff021916908373ffffffffffffffffffffffffffffffffffffffff1602179055506207a1206006600201819055506040805190810160405280600381526020017f78797a000000000000000000000000000000000000000000000000000000000081525060066001019080519060200190620000c7929190620007c2565b5073397b77a261b9480235a46d92b5d57db35cf069ef600260000160006101000a81548173ffffffffffffffffffffffffffffffffffffffff021916908373ffffffffffffffffffffffffffffffffffffffff160217905550624c4b4060028001819055506040805190810160405280600381526020017f6162630000000000000000000000000000000000000000000000000000000000815250600260010190805190602001906200017c929190620007c2565b5033826000019073ffffffffffffffffffffffffffffffffffffffff16908173ffffffffffffffffffffffffffffffffffffffff16815250506040805190810160405280600381526020017f78797a0000000000000000000000000000000000000000000000000000000000815250826020018190525060018260400181815250506040805190810160405280600d81526020017f4d4820303120435020373139360000000000000000000000000000000000000081525082606001819052506040805190810160405280601181526020017f4879756e64616920456c6974652069323000000000000000000000000000000081525082608001819052506040805190810160405280600a81526020017f31322f31302f32303138000000000000000000000000000000000000000000008152508260a001819052506040805190810160405280600881526020017f41424344313233340000000000000000000000000000000000000000000000008152508260c001819052508160008080815260200190815260200160002060008201518160000160006101000a81548173ffffffffffffffffffffffffffffffffffffffff021916908373ffffffffffffffffffffffffffffffffffffffff16021790555060208201518160010190805190602001906200036e92919062000849565b506040820151816002015560608201518160030190805190602001906200039792919062000849565b506080820151816004019080519060200190620003b692919062000849565b5060a0820151816005019080519060200190620003d592919062000849565b5060c0820151816006019080519060200190620003f492919062000849565b5090505060066003018060018154018082558091505090600182039060005260206000200160006040805190810160405280600881526020017f4142434431323334000000000000000000000000000000000000000000000000815250909190915090805190602001906200046b929190620007c2565b505033816000019073ffffffffffffffffffffffffffffffffffffffff16908173ffffffffffffffffffffffffffffffffffffffff16815250506040805190810160405280600381526020017f78797a0000000000000000000000000000000000000000000000000000000000815250816020018190525060018160400181815250506040805190810160405280600d81526020017f4d4820303120435020373930370000000000000000000000000000000000000081525081606001819052506040805190810160405280600b81526020017f4879756e64616920456f6e00000000000000000000000000000000000000000081525081608001819052506040805190810160405280600a81526020017f31322f31302f32303138000000000000000000000000000000000000000000008152508160a001819052506040805190810160405280600881526020017f50515253313233340000000000000000000000000000000000000000000000008152508160c00181905250806000806001815260200190815260200160002060008201518160000160006101000a81548173ffffffffffffffffffffffffffffffffffffffff021916908373ffffffffffffffffffffffffffffffffffffffff16021790555060208201518160010190805190602001906200065f92919062000849565b506040820151816002015560608201518160030190805190602001906200068892919062000849565b506080820151816004019080519060200190620006a792919062000849565b5060a0820151816005019080519060200190620006c692919062000849565b5060c0820151816006019080519060200190620006e592919062000849565b5090505060066003018060018154018082558091505090600182039060005260206000200160006040805190810160405280600881526020017f5051525331323334000000000000000000000000000000000000000000000000815250909190915090805190602001906200075c929190620007c2565b505060026001819055505050620008f8565b60e060405190810160405280600073ffffffffffffffffffffffffffffffffffffffff1681526020016060815260200160008152602001606081526020016060815260200160608152602001606081525090565b828054600181600116156101000203166002900490600052602060002090601f016020900481019282601f106200080557805160ff191683800117855562000836565b8280016001018555821562000836579182015b828111156200083557825182559160200191906001019062000818565b5b509050620008459190620008d0565b5090565b828054600181600116156101000203166002900490600052602060002090601f016020900481019282601f106200088c57805160ff1916838001178555620008bd565b82800160010185558215620008bd579182015b82811115620008bc5782518255916020019190600101906200089f565b5b509050620008cc9190620008d0565b5090565b620008f591905b80821115620008f1576000816000905550600101620008d7565b5090565b90565b611bdc80620009086000396000f300608060405260043610610083576000357c0100000000000000000000000000000000000000000000000000000000900463ffffffff16806308551a53146100885780631e2649da146101525780636f09f0db146101d85780637150d8ae146104685780637782ec5014610532578063a8d27271146105b8578063ffb8b350146106cb575b600080fd5b34801561009457600080fd5b5061009d6106f6565b604051808473ffffffffffffffffffffffffffffffffffffffff1673ffffffffffffffffffffffffffffffffffffffff16815260200180602001838152602001828103825284818151815260200191508051906020019080838360005b838110156101155780820151818401526020810190506100fa565b50505050905090810190601f1680156101425780820380516001836020036101000a031916815260200191505b5094505050505060405180910390f35b6101d6600480360381019080803590602001908201803590602001908080601f016020809104026020016040519081016040528093929190818152602001838380828437820191505050505050919291929080359060200190929190803573ffffffffffffffffffffffffffffffffffffffff1690602001909291905050506107c6565b005b3480156101e457600080fd5b5061020360048036038101908080359060200190929190505050610adc565b604051808873ffffffffffffffffffffffffffffffffffffffff1673ffffffffffffffffffffffffffffffffffffffff168152602001806020018781526020018060200180602001806020018060200186810386528c818151815260200191508051906020019080838360005b8381101561028b578082015181840152602081019050610270565b50505050905090810190601f1680156102b85780820380516001836020036101000a031916815260200191505b5086810385528a818151815260200191508051906020019080838360005b838110156102f15780820151818401526020810190506102d6565b50505050905090810190601f16801561031e5780820380516001836020036101000a031916815260200191505b50868103845289818151815260200191508051906020019080838360005b8381101561035757808201518184015260208101905061033c565b50505050905090810190601f1680156103845780820380516001836020036101000a031916815260200191505b50868103835288818151815260200191508051906020019080838360005b838110156103bd5780820151818401526020810190506103a2565b50505050905090810190601f1680156103ea5780820380516001836020036101000a031916815260200191505b50868103825287818151815260200191508051906020019080838360005b83811015610423578082015181840152602081019050610408565b50505050905090810190601f1680156104505780820380516001836020036101000a031916815260200191505b509c5050505050505050505050505060405180910390f35b34801561047457600080fd5b5061047d610e36565b604051808473ffffffffffffffffffffffffffffffffffffffff1673ffffffffffffffffffffffffffffffffffffffff16815260200180602001838152602001828103825284818151815260200191508051906020019080838360005b838110156104f55780820151818401526020810190506104da565b50505050905090810190601f1680156105225780820380516001836020036101000a031916815260200191505b5094505050505060405180910390f35b6105b6600480360381019080803590602001908201803590602001908080601f0160208091040260200160405190810160405280939291908181526020018383808284378201915050505050509192919290803573ffffffffffffffffffffffffffffffffffffffff16906020019092919080359060200190929190505050610f06565b005b3480156105c457600080fd5b506105e3600480360381019080803590602001909291905050506116b4565b60405180806020018581526020018473ffffffffffffffffffffffffffffffffffffffff1673ffffffffffffffffffffffffffffffffffffffff1681526020018373ffffffffffffffffffffffffffffffffffffffff1673ffffffffffffffffffffffffffffffffffffffff168152602001828103825286818151815260200191508051906020019080838360005b8381101561068d578082015181840152602081019050610672565b50505050905090810190601f1680156106ba5780820380516001836020036101000a031916815260200191505b509550505050505060405180910390f35b3480156106d757600080fd5b506106e06117cb565b6040518082815260200191505060405180910390f35b60068060000160009054906101000a900473ffffffffffffffffffffffffffffffffffffffff1690806001018054600181600116156101000203166002900480601f0160208091040260200160405190810160405280929190818152602001828054600181600116156101000203166002900480156107b65780601f1061078b576101008083540402835291602001916107b6565b820191906000526020600020905b81548152906001019060200180831161079957829003601f168201915b5050505050908060020154905083565b6000806107d16117d1565b600092503373ffffffffffffffffffffffffffffffffffffffff16600660000160009054906101000a900473ffffffffffffffffffffffffffffffffffffffff1673ffffffffffffffffffffffffffffffffffffffff1614151561083457600080fd5b600091505b60066003018054905082101561095457856040518082805190602001908083835b60208310151561087f578051825260208201915060208101905060208303925061085a565b6001836020036101000a0380198251168184511680821785525050505050509050019150506040518091039020600019166006600301838154811015156108c257fe5b9060005260206000200160405180828054600181600116156101000203166002900480156109275780601f10610905576101008083540402835291820191610927565b820191906000526020600020905b815481529060010190602001808311610913575b505091505060405180910390206000191614156109475760019250610954565b8180600101925050610839565b600115158315151415610acf578581600001819052508481602001818152505083816040019073ffffffffffffffffffffffffffffffffffffffff16908173ffffffffffffffffffffffffffffffffffffffff168152505033816060019073ffffffffffffffffffffffffffffffffffffffff16908173ffffffffffffffffffffffffffffffffffffffff1681525050600a81908060018154018082558091505090600182039060005260206000209060040201600090919290919091506000820151816000019080519060200190610a2e929190611826565b506020820151816001015560408201518160020160006101000a81548173ffffffffffffffffffffffffffffffffffffffff021916908373ffffffffffffffffffffffffffffffffffffffff16021790555060608201518160030160006101000a81548173ffffffffffffffffffffffffffffffffffffffff021916908373ffffffffffffffffffffffffffffffffffffffff160217905550505050610ad4565b600080fd5b505050505050565b60006020528060005260406000206000915090508060000160009054906101000a900473ffffffffffffffffffffffffffffffffffffffff1690806001018054600181600116156101000203166002900480601f016020809104026020016040519081016040528092919081815260200182805460018160011615610100020316600290048015610bae5780601f10610b8357610100808354040283529160200191610bae565b820191906000526020600020905b815481529060010190602001808311610b9157829003601f168201915b505050505090806002015490806003018054600181600116156101000203166002900480601f016020809104026020016040519081016040528092919081815260200182805460018160011615610100020316600290048015610c525780601f10610c2757610100808354040283529160200191610c52565b820191906000526020600020905b815481529060010190602001808311610c3557829003601f168201915b505050505090806004018054600181600116156101000203166002900480601f016020809104026020016040519081016040528092919081815260200182805460018160011615610100020316600290048015610cf05780601f10610cc557610100808354040283529160200191610cf0565b820191906000526020600020905b815481529060010190602001808311610cd357829003601f168201915b505050505090806005018054600181600116156101000203166002900480601f016020809104026020016040519081016040528092919081815260200182805460018160011615610100020316600290048015610d8e5780601f10610d6357610100808354040283529160200191610d8e565b820191906000526020600020905b815481529060010190602001808311610d7157829003601f168201915b505050505090806006018054600181600116156101000203166002900480601f016020809104026020016040519081016040528092919081815260200182805460018160011615610100020316600290048015610e2c5780601f10610e0157610100808354040283529160200191610e2c565b820191906000526020600020905b815481529060010190602001808311610e0f57829003601f168201915b5050505050905087565b60028060000160009054906101000a900473ffffffffffffffffffffffffffffffffffffffff1690806001018054600181600116156101000203166002900480601f016020809104026020016040519081016040528092919081815260200182805460018160011615610100020316600290048015610ef65780601f10610ecb57610100808354040283529160200191610ef6565b820191906000526020600020905b815481529060010190602001808311610ed957829003601f168201915b5050505050908060020154905083565b600080600080600060019350600092505b600a8054905083101561114f57600a83815481101515610f3357fe5b90600052602060002090600402016000016040518082805460018160011615610100020316600290048015610f9f5780601f10610f7d576101008083540402835291820191610f9f565b820191906000526020600020905b815481529060010190602001808311610f8b575b5050915050604051809103902060001916886040518082805190602001908083835b602083101515610fe65780518252602082019150602081019050602083039250610fc1565b6001836020036101000a03801982511681845116808217855250505050505090500191505060405180910390206000191614801561108f5750600a8381548110151561102e57fe5b906000526020600020906004020160030160009054906101000a900473ffffffffffffffffffffffffffffffffffffffff1673ffffffffffffffffffffffffffffffffffffffff168773ffffffffffffffffffffffffffffffffffffffff16145b80156111065750600a838154811015156110a557fe5b906000526020600020906004020160020160009054906101000a900473ffffffffffffffffffffffffffffffffffffffff1673ffffffffffffffffffffffffffffffffffffffff163373ffffffffffffffffffffffffffffffffffffffff16145b80156111315750600a8381548110151561111c57fe5b90600052602060002090600402016001015486145b15611142576000935082945061114f565b8280600101935050610f17565b6000151584151514156116a557856002800160008282540392505081905550600091505b60066003018054905082101561130657876040518082805190602001908083835b6020831015156111b95780518252602082019150602081019050602083039250611194565b6001836020036101000a0380198251168184511680821785525050505050509050019150506040518091039020600019166006600301838154811015156111fc57fe5b9060005260206000200160405180828054600181600116156101000203166002900480156112615780601f1061123f576101008083540402835291820191611261565b820191906000526020600020905b81548152906001019060200180831161124d575b505091505060405180910390206000191614156112f957600660030160016006600301805490500381548110151561129557fe5b906000526020600020016006600301838154811015156112b157fe5b9060005260206000200190805460018160011615610100020316600290046112da9291906118a6565b5060066003018054809190600190036112f3919061192d565b50611306565b8180600101925050611173565b60009050600260030188908060018154018082558091505090600182039060005260206000200160009091929091909150908051906020019061134a929190611959565b505085600660020160008282540192505081905550600090505b60015481101561146e57876040518082805190602001908083835b6020831015156113a4578051825260208201915060208101905060208303925061137f565b6001836020036101000a03801982511681845116808217855250505050505090500191505060405180910390206000191660008083815260200190815260200160002060060160405180828054600181600116156101000203166002900480156114455780601f10611423576101008083540402835291820191611445565b820191906000526020600020905b815481529060010190602001808311611431575b505091505060405180910390206000191614156114615761146e565b8080600101915050611364565b3360008083815260200190815260200160002060000160006101000a81548173ffffffffffffffffffffffffffffffffffffffff021916908373ffffffffffffffffffffffffffffffffffffffff1602179055506040805190810160405280600381526020017f61626300000000000000000000000000000000000000000000000000000000008152506000808381526020019081526020016000206001019080519060200190611520929190611959565b50600160008083815260200190815260200160002060020160008282540192505081905550600a6001600a805490500381548110151561155c57fe5b9060005260206000209060040201600a8681548110151561157957fe5b9060005260206000209060040201600082018160000190805460018160011615610100020316600290046115ae9291906119d9565b50600182015481600101556002820160009054906101000a900473ffffffffffffffffffffffffffffffffffffffff168160020160006101000a81548173ffffffffffffffffffffffffffffffffffffffff021916908373ffffffffffffffffffffffffffffffffffffffff1602179055506003820160009054906101000a900473ffffffffffffffffffffffffffffffffffffffff168160030160006101000a81548173ffffffffffffffffffffffffffffffffffffffff021916908373ffffffffffffffffffffffffffffffffffffffff160217905550905050600a80548091906001900361169f9190611a60565b506116aa565b600080fd5b5050505050505050565b600a818154811015156116c357fe5b9060005260206000209060040201600091509050806000018054600181600116156101000203166002900480601f01602080910402602001604051908101604052809291908181526020018280546001816001161561010002031660029004801561176f5780601f106117445761010080835404028352916020019161176f565b820191906000526020600020905b81548152906001019060200180831161175257829003601f168201915b5050505050908060010154908060020160009054906101000a900473ffffffffffffffffffffffffffffffffffffffff16908060030160009054906101000a900473ffffffffffffffffffffffffffffffffffffffff16905084565b60015481565b6080604051908101604052806060815260200160008152602001600073ffffffffffffffffffffffffffffffffffffffff168152602001600073ffffffffffffffffffffffffffffffffffffffff1681525090565b828054600181600116156101000203166002900490600052602060002090601f016020900481019282601f1061186757805160ff1916838001178555611895565b82800160010185558215611895579182015b82811115611894578251825591602001919060010190611879565b5b5090506118a29190611a92565b5090565b828054600181600116156101000203166002900490600052602060002090601f016020900481019282601f106118df578054855561191c565b8280016001018555821561191c57600052602060002091601f016020900482015b8281111561191b578254825591600101919060010190611900565b5b5090506119299190611a92565b5090565b815481835581811115611954578183600052602060002091820191016119539190611ab7565b5b505050565b828054600181600116156101000203166002900490600052602060002090601f016020900481019282601f1061199a57805160ff19168380011785556119c8565b828001600101855582156119c8579182015b828111156119c75782518255916020019190600101906119ac565b5b5090506119d59190611a92565b5090565b828054600181600116156101000203166002900490600052602060002090601f016020900481019282601f10611a125780548555611a4f565b82800160010185558215611a4f57600052602060002091601f016020900482015b82811115611a4e578254825591600101919060010190611a33565b5b509050611a5c9190611a92565b5090565b815481835581811115611a8d57600402816004028360005260206000209182019101611a8c9190611ae3565b5b505050565b611ab491905b80821115611ab0576000816000905550600101611a98565b5090565b90565b611ae091905b80821115611adc5760008181611ad39190611b68565b50600101611abd565b5090565b90565b611b6591905b80821115611b615760008082016000611b029190611b68565b60018201600090556002820160006101000a81549073ffffffffffffffffffffffffffffffffffffffff02191690556003820160006101000a81549073ffffffffffffffffffffffffffffffffffffffff021916905550600401611ae9565b5090565b90565b50805460018160011615610100020316600290046000825580601f10611b8e5750611bad565b601f016020900490600052602060002090810190611bac9190611a92565b5b505600a165627a7a72305820b3827e6ebfa539c210ae08af74aab4d0059ff425c1d9481b1ab609198ff95c040029",
  "source": "pragma solidity ^0.4.17;\r\n\r\ncontract SmartCity\r\n{\r\n    struct Person\r\n    {\r\n        address personId;\r\n        string person_name;\r\n        uint balance;\r\n        string[] rc_ids;\r\n    }\r\n    \r\n    struct rc\r\n    {\r\n        address ownerId;\r\n        string owner_name;\r\n        uint ownership;\r\n        string car_registration_number;\r\n        string maker_model;\r\n        string datetoday;\r\n        string chassis_number;\r\n    }\r\n    \r\n    mapping (uint => rc) public rc_arr;\r\n    uint public noofcars;\r\n\r\n    event cars (\r\n        uint indexed price\r\n    );\r\n\r\n    Person public buyer;\r\n    Person public seller;\r\n    \r\n    \r\n    struct globalVehicles\r\n    {\r\n        string rc_id;\r\n        uint selling_price;\r\n        address buyer_id;\r\n        address seller_id;\r\n    }\r\n    \r\n    globalVehicles[] public vehicle_Arr;\r\n    \r\n    function SmartCity() public\r\n    {\r\n        seller.personId=msg.sender;\r\n        seller.balance=500000;\r\n        seller.person_name=\"xyz\";\r\n        buyer.personId=0x397B77A261B9480235A46D92b5D57db35cF069ef;\r\n        buyer.balance=5000000;\r\n        buyer.person_name=\"abc\";\r\n    \r\n        rc memory Vehicle1;\r\n        rc memory Vehicle;\r\n        Vehicle1.ownerId=msg.sender;\r\n        Vehicle1.owner_name=\"xyz\";\r\n        Vehicle1.ownership=1;\r\n        Vehicle1.car_registration_number=\"MH 01 CP 7196\";\r\n        Vehicle1.maker_model=\"Hyundai Elite i20\";\r\n        Vehicle1.datetoday=\"12/10/2018\";\r\n        Vehicle1.chassis_number=\"ABCD1234\";\r\n        rc_arr[0]=Vehicle1;\r\n        seller.rc_ids.push(\"ABCD1234\");\r\n        Vehicle.ownerId=msg.sender;\r\n        Vehicle.owner_name=\"xyz\";\r\n        Vehicle.ownership=1;\r\n        Vehicle.car_registration_number=\"MH 01 CP 7907\";\r\n        Vehicle.maker_model=\"Hyundai Eon\";\r\n        Vehicle.datetoday=\"12/10/2018\";\r\n        Vehicle.chassis_number=\"PQRS1234\";\r\n        rc_arr[1]=Vehicle;\r\n        seller.rc_ids.push(\"PQRS1234\");\r\n        noofcars=2;\r\n    }\r\n    \r\n    function sell(string rc_id, uint selling_price, address buyer_id ) public payable\r\n    {\r\n        bool flag=false;\r\n        if(seller.personId!=msg.sender)\r\n        {\r\n            revert();\r\n        }\r\n        else\r\n        {\r\n        for(uint i=0;i<seller.rc_ids.length;i++)\r\n        {\r\n            if(keccak256(seller.rc_ids[i])==keccak256(rc_id))\r\n            {\r\n                flag=true;\r\n                break;\r\n            }\r\n        }\r\n        if(flag==true)\r\n        {\r\n         globalVehicles memory g;\r\n         g.rc_id=rc_id;\r\n         g.selling_price=selling_price;\r\n         g.buyer_id=buyer_id;\r\n         g.seller_id=msg.sender;\r\n         vehicle_Arr.push(g);\r\n        \r\n                 }\r\n        else\r\n        {\r\n            revert();\r\n        }\r\n    }\r\n}\r\n    \r\n    function buy(string rc_id, address seller_id, uint price) public payable\r\n    {\r\n        uint n;\r\n        bool flag=true;\r\n        for(uint i=0;i<vehicle_Arr.length;i++)\r\n        {\r\n            if((keccak256(rc_id)==keccak256(vehicle_Arr[i].rc_id)) \r\n            && (seller_id==vehicle_Arr[i].seller_id)\r\n            && (msg.sender==vehicle_Arr[i].buyer_id)\r\n            && (price==vehicle_Arr[i].selling_price))\r\n            {\r\n                \r\n                flag=false;\r\n                n=i;\r\n                break;\r\n            }\r\n        }\r\n        if (flag==false)\r\n        {\r\n            \r\n            buyer.balance-=price;\r\n            \r\n            uint j;\r\n            for ( j=0;j<seller.rc_ids.length;j++)\r\n            {\r\n                if(keccak256(seller.rc_ids[j])==keccak256(rc_id))\r\n                {\r\n                seller.rc_ids[j] = seller.rc_ids[seller.rc_ids.length-1];\r\n                seller.rc_ids.length--;\r\n                break;\r\n                }\r\n            \r\n            }\r\n            //\r\n            uint k=0;\r\n            buyer.rc_ids.push(rc_id);\r\n            seller.balance+=price;\r\n            for(k=0;k<noofcars;k++)\r\n            {\r\n                if(keccak256(rc_arr[k].chassis_number)==keccak256(rc_id))\r\n                {\r\n                    break;\r\n                }\r\n            }\r\n            rc_arr[k].ownerId=msg.sender;\r\n            rc_arr[k].owner_name=\"abc\";\r\n            rc_arr[k].ownership+=1;\r\n            vehicle_Arr[n] = vehicle_Arr[vehicle_Arr.length - 1];\r\n            vehicle_Arr.length--;\r\n            // cars(price);\r\n        }\r\n        else\r\n        {\r\n            revert();\r\n        }\r\n    }\r\n    \r\n}",
  "sourcePath": "G:\\Blockchain\\Smart_City\\contracts\\SmartCity.sol",
  "compiler": {
    "name": "solc",
    "version": "0.4.24+commit.e67f0147.Emscripten.clang"
  },
  "schemaVersion": "2.0.1",
  "updatedAt": "2018-12-22T04:38:43.670Z"
}