{
  "contractName": "Ticket",
  "abi": [
    {
      "constant": true,
      "inputs": [
        {
          "name": "",
          "type": "uint256"
        }
      ],
      "name": "addrArray",
      "outputs": [
        {
          "name": "",
          "type": "address"
        }
      ],
      "payable": false,
      "stateMutability": "view",
      "type": "function"
    },
    {
      "constant": true,
      "inputs": [],
      "name": "person1",
      "outputs": [
        {
          "name": "personId",
          "type": "address"
        },
        {
          "name": "balance",
          "type": "uint256"
        },
        {
          "name": "noOfTicketsBooked",
          "type": "uint256"
        }
      ],
      "payable": false,
      "stateMutability": "view",
      "type": "function"
    },
    {
      "constant": true,
      "inputs": [
        {
          "name": "",
          "type": "uint256"
        }
      ],
      "name": "persons",
      "outputs": [
        {
          "name": "personId",
          "type": "address"
        },
        {
          "name": "balance",
          "type": "uint256"
        },
        {
          "name": "noOfTicketsBooked",
          "type": "uint256"
        }
      ],
      "payable": false,
      "stateMutability": "view",
      "type": "function"
    },
    {
      "constant": true,
      "inputs": [
        {
          "name": "",
          "type": "uint256"
        }
      ],
      "name": "map",
      "outputs": [
        {
          "name": "",
          "type": "address"
        }
      ],
      "payable": false,
      "stateMutability": "view",
      "type": "function"
    },
    {
      "constant": true,
      "inputs": [],
      "name": "stage",
      "outputs": [
        {
          "name": "",
          "type": "uint8"
        }
      ],
      "payable": false,
      "stateMutability": "view",
      "type": "function"
    },
    {
      "constant": true,
      "inputs": [],
      "name": "registeredPersons",
      "outputs": [
        {
          "name": "",
          "type": "uint256"
        }
      ],
      "payable": false,
      "stateMutability": "view",
      "type": "function"
    },
    {
      "inputs": [],
      "payable": false,
      "stateMutability": "nonpayable",
      "type": "constructor"
    },
    {
      "constant": false,
      "inputs": [],
      "name": "register",
      "outputs": [],
      "payable": true,
      "stateMutability": "payable",
      "type": "function"
    },
    {
      "constant": false,
      "inputs": [
        {
          "name": "noOfTickets",
          "type": "uint256"
        }
      ],
      "name": "bookTicket",
      "outputs": [],
      "payable": true,
      "stateMutability": "payable",
      "type": "function"
    },
    {
      "constant": false,
      "inputs": [
        {
          "name": "noOfTickets",
          "type": "uint256"
        }
      ],
      "name": "cancelTicket",
      "outputs": [],
      "payable": true,
      "stateMutability": "payable",
      "type": "function"
    },
    {
      "constant": false,
      "inputs": [
        {
          "name": "to",
          "type": "address"
        },
        {
          "name": "noOfTickets",
          "type": "uint256"
        }
      ],
      "name": "transfer",
      "outputs": [],
      "payable": true,
      "stateMutability": "payable",
      "type": "function"
    }
  ],
  "bytecode": "0x60806040526000600660006101000a81548160ff021916908360038111156200002457fe5b02179055506000612717553480156200003c57600080fd5b506000336000800160006101000a81548173ffffffffffffffffffffffffffffffffffffffff021916908373ffffffffffffffffffffffffffffffffffffffff1602179055506000806001018190555060196000600201819055506019600060030181620000ab919062000194565b50600090505b6019811015620001615780600060030182815481101515620000cf57fe5b90600052602060002001819055506000800160009054906101000a900473ffffffffffffffffffffffffffffffffffffffff166005600083815260200190815260200160002060006101000a81548173ffffffffffffffffffffffffffffffffffffffff021916908373ffffffffffffffffffffffffffffffffffffffff1602179055508080600101915050620000b1565b426004819055506001600660006101000a81548160ff021916908360038111156200018857fe5b021790555050620001eb565b815481835581811115620001be57818360005260206000209182019101620001bd9190620001c3565b5b505050565b620001e891905b80821115620001e4576000816000905550600101620001ca565b5090565b90565b61109c80620001fb6000396000f3006080604052600436106100a4576000357c0100000000000000000000000000000000000000000000000000000000900463ffffffff16806315c5992d146100a95780631aa3a008146101165780631c91a65e1461012057806346cb59c214610140578063a2f9eac6146101a5578063a9059cbb14610220578063b8dda9c714610260578063c040e6b8146102cd578063ee355b1f14610306578063eec1adf014610326575b600080fd5b3480156100b557600080fd5b506100d460048036038101908080359060200190929190505050610351565b604051808273ffffffffffffffffffffffffffffffffffffffff1673ffffffffffffffffffffffffffffffffffffffff16815260200191505060405180910390f35b61011e610388565b005b61013e600480360381019080803590602001909291905050506105ae565b005b34801561014c57600080fd5b5061015561083a565b604051808473ffffffffffffffffffffffffffffffffffffffff1673ffffffffffffffffffffffffffffffffffffffff168152602001838152602001828152602001935050505060405180910390f35b3480156101b157600080fd5b506101d060048036038101908080359060200190929190505050610872565b604051808473ffffffffffffffffffffffffffffffffffffffff1673ffffffffffffffffffffffffffffffffffffffff168152602001838152602001828152602001935050505060405180910390f35b61025e600480360381019080803573ffffffffffffffffffffffffffffffffffffffff169060200190929190803590602001909291905050506108c2565b005b34801561026c57600080fd5b5061028b60048036038101908080359060200190929190505050610c72565b604051808273ffffffffffffffffffffffffffffffffffffffff1673ffffffffffffffffffffffffffffffffffffffff16815260200191505060405180910390f35b3480156102d957600080fd5b506102e2610ca5565b604051808260038111156102f257fe5b60ff16815260200191505060405180910390f35b61032460048036038101908080359060200190929190505050610cb8565b005b34801561033257600080fd5b5061033b611018565b6040518082815260200191505060405180910390f35b611f47816107d08110151561036257fe5b016000915054906101000a900473ffffffffffffffffffffffffffffffffffffffff1681565b6000806305f5e1009150600090505b6127175481101561041d573373ffffffffffffffffffffffffffffffffffffffff16611f47826107d0811015156103ca57fe5b0160009054906101000a900473ffffffffffffffffffffffffffffffffffffffff1673ffffffffffffffffffffffffffffffffffffffff1614156104105780915061041d565b8080600101915050610397565b6305f5e1008214151561042f57600080fd5b6305f5e1006127175410156105a557336007612717546107d08110151561045257fe5b6004020160000160006101000a81548173ffffffffffffffffffffffffffffffffffffffff021916908373ffffffffffffffffffffffffffffffffffffffff16021790555033611f47612717546107d0811015156104ac57fe5b0160006101000a81548173ffffffffffffffffffffffffffffffffffffffff021916908373ffffffffffffffffffffffffffffffffffffffff160217905550662386f26fc100003373ffffffffffffffffffffffffffffffffffffffff163181151561051457fe5b046007612717546107d08110151561052857fe5b600402016001018190555060006007612717546107d08110151561054857fe5b600402016002018190555061271760008154809291906001019190505550610bb8600454014211156105a0576002600660006101000a81548160ff0219169083600381111561059357fe5b0217905550426004819055505b6105aa565b600080fd5b5050565b6000806000806305f5e100935060006003018054905085101561082e57600092505b61271754831015610656573373ffffffffffffffffffffffffffffffffffffffff16611f47846107d08110151561060357fe5b0160009054906101000a900473ffffffffffffffffffffffffffffffffffffffff1673ffffffffffffffffffffffffffffffffffffffff16141561064957829350610656565b82806001019350506105d0565b6305f5e10084141561066757600080fd5b61012c85029150816007856107d08110151561067f57fe5b600402016001015410151561082457816007856107d08110151561069f57fe5b6004020160010154036007856107d0811015156106b857fe5b600402016001018190555081600060010160008282540192505081905550846007856107d0811015156106e757fe5b6004020160020160008282540192505081905550600090505b8481101561081f5733600560008060030160016000600201540381548110151561072657fe5b9060005260206000200154815260200190815260200160002060006101000a81548173ffffffffffffffffffffffffffffffffffffffff021916908373ffffffffffffffffffffffffffffffffffffffff1602179055506007846107d08110151561078d57fe5b6004020160030160006003016001600060020154038154811015156107ae57fe5b9060005260206000200154908060018154018082558091505090600182039060005260206000200160009091929091909150555060016000600201600082825403925050819055506001600060030181818054905003915081610811919061101f565b508080600101915050610700565b610829565b600080fd5b610833565b600080fd5b5050505050565b60008060000160009054906101000a900473ffffffffffffffffffffffffffffffffffffffff16908060010154908060020154905083565b6007816107d08110151561088257fe5b600402016000915090508060000160009054906101000a900473ffffffffffffffffffffffffffffffffffffffff16908060010154908060020154905083565b60008060008060008060003396506305f5e10095506305f5e1009450600093505b61271754841015610969578673ffffffffffffffffffffffffffffffffffffffff16611f47856107d08110151561091657fe5b0160009054906101000a900473ffffffffffffffffffffffffffffffffffffffff1673ffffffffffffffffffffffffffffffffffffffff16141561095c57839550610969565b83806001019450506108e3565b600092505b612717548310156109f4578873ffffffffffffffffffffffffffffffffffffffff16611f47846107d0811015156109a157fe5b0160009054906101000a900473ffffffffffffffffffffffffffffffffffffffff1673ffffffffffffffffffffffffffffffffffffffff1614156109e7578294506109f4565b828060010193505061096e565b6305f5e100861480610a0957506305f5e10085145b15610a1357600080fd5b61012c88029150876007876107d081101515610a2b57fe5b600402016002015410158015610a585750816007866107d081101515610a4d57fe5b600402016001015410155b15610c6257600090505b87811015610be65788600560006007896107d081101515610a7f57fe5b60040201600301600160078b6107d081101515610a9857fe5b600402016002015403815481101515610aad57fe5b9060005260206000200154815260200190815260200160002060006101000a81548173ffffffffffffffffffffffffffffffffffffffff021916908373ffffffffffffffffffffffffffffffffffffffff1602179055506007856107d081101515610b1457fe5b600402016003016007876107d081101515610b2b57fe5b6004020160030160016007896107d081101515610b4457fe5b600402016002015403815481101515610b5957fe5b9060005260206000200154908060018154018082558091505090600182039060005260206000200160009091929091909150555060016007866107d081101515610b9f57fe5b600402016002016000828254019250508190555060016007876107d081101515610bc557fe5b60040201600201600082825403925050819055508080600101915050610a62565b816007876107d081101515610bf757fe5b6004020160010160008282540192505081905550816007866107d081101515610c1c57fe5b6004020160010160008282540392505081905550876007876107d081101515610c4157fe5b6004020160030181818054905003915081610c5c919061101f565b50610c67565b600080fd5b505050505050505050565b60056020528060005260406000206000915054906101000a900473ffffffffffffffffffffffffffffffffffffffff1681565b600660009054906101000a900460ff1681565b60008060008060008060649550600094505b61271754851015610d50573373ffffffffffffffffffffffffffffffffffffffff16611f47866107d081101515610cfd57fe5b0160009054906101000a900473ffffffffffffffffffffffffffffffffffffffff1673ffffffffffffffffffffffffffffffffffffffff161415610d4357849550610d50565b8480600101955050610cca565b6064861415610d5e57600080fd5b3373ffffffffffffffffffffffffffffffffffffffff166007876107d081101515610d8557fe5b6004020160000160009054906101000a900473ffffffffffffffffffffffffffffffffffffffff1673ffffffffffffffffffffffffffffffffffffffff16148015610de75750866007876107d081101515610ddc57fe5b600402016002015410155b1561100a5761012c87029350600a84811515610dff57fe5b0492508284039150816007876107d081101515610e1857fe5b6004020160010154016007876107d081101515610e3157fe5b600402016001018190555081600060010160008282540392505081905550600090505b86811015610fd8576000800160009054906101000a900473ffffffffffffffffffffffffffffffffffffffff16600560006007896107d081101515610e9557fe5b60040201600301600160078b6107d081101515610eae57fe5b600402016002015403815481101515610ec357fe5b9060005260206000200154815260200190815260200160002060006101000a81548173ffffffffffffffffffffffffffffffffffffffff021916908373ffffffffffffffffffffffffffffffffffffffff16021790555060006003016007876107d081101515610f2f57fe5b6004020160030160016007896107d081101515610f4857fe5b600402016002015403815481101515610f5d57fe5b9060005260206000200154908060018154018082558091505090600182039060005260206000200160009091929091909150555060016007876107d081101515610fa357fe5b600402016002016000828254039250508190555060016000600201600082825401925050819055508080600101915050610e54565b866007876107d081101515610fe957fe5b6004020160030181818054905003915081611004919061101f565b5061100f565b600080fd5b50505050505050565b6127175481565b81548183558181111561104657818360005260206000209182019101611045919061104b565b5b505050565b61106d91905b80821115611069576000816000905550600101611051565b5090565b905600a165627a7a72305820504a7632e7504f9b658d49ef62153b939231684d1fb0ba85dd262ab40675ef010029",
  "source": "pragma solidity ^0.4.24;\r\n\r\ncontract Ticket\r\n{\r\n    \r\n    //uint public ticket=0;\r\n    //bool public ticketAvailabilty=true;\r\n    \r\n    struct Person\r\n    {\r\n        address personId;\r\n        uint balance;\r\n        uint noOfTicketsBooked;\r\n        uint[] ticketArray;\r\n    }\r\n    Person public person1;\r\n    uint startTime;\r\n    mapping(uint => address) public map;\r\n    enum Stage{Init,Reg,Book,Done}\r\n    Stage public stage = Stage.Init;\r\n    \r\n    Person[2000] public persons;\r\n    address[2000] public addrArray;\r\n    uint public registeredPersons = 0;\r\n    \r\n        modifier validStage(Stage reqStage)\r\n    { \r\n        require(stage == reqStage);\r\n        _;\r\n    }\r\n    function Ticket() public \r\n    {\r\n         person1.personId=msg.sender;\r\n         person1.balance=0;\r\n         person1.noOfTicketsBooked=25;\r\n         person1.ticketArray.length=25;\r\n         uint i=0;\r\n         while(i<25){\r\n             person1.ticketArray[i]=i;\r\n\t\tmap[i]=person1.personId;\r\n             i++;\r\n         }\r\n         startTime = now;\r\n         stage = Stage.Reg;\r\n         \r\n    }\r\n    \r\nfunction register() public payable\r\n    {\r\n       uint index = 100000000;\r\n\r\n       for(uint i = 0;i < registeredPersons;i++)\r\n        {\r\n            if(addrArray[i] == msg.sender)\r\n            {\r\n                index=i;\r\n                break;\r\n            }\r\n           \r\n        }\r\n         if (index!=100000000)\r\n            {\r\n                revert();\r\n            }\r\n        \r\n        if(registeredPersons<100000000)\r\n        {\r\n        persons[registeredPersons].personId=msg.sender;\r\n        addrArray[registeredPersons]=msg.sender;\r\n        persons[registeredPersons].balance=msg.sender.balance/10000000000000000;\r\n        persons[registeredPersons].noOfTicketsBooked=0;\r\n        registeredPersons++;\r\n            if( now > (startTime+ 3000))\r\n            {\r\n                stage=Stage.Book;\r\n                startTime=now;\r\n            }\r\n        }\r\n            else\r\n            {\r\n                revert();\r\n            }\r\n        \r\n        \r\n    }\r\n\r\n \r\n\r\n    function bookTicket(uint noOfTickets) public payable\r\n    {\r\n        uint index = 100000000;\r\n        \r\n        if((noOfTickets)<person1.ticketArray.length)\r\n        {\r\n        //ticketAvailabilty=true;\r\n        \r\n        for(uint i = 0;i < registeredPersons;i++)\r\n        {\r\n            if(addrArray[i] == msg.sender)\r\n            {\r\n                index=i;\r\n                break;\r\n            }\r\n           \r\n        }\r\n         if (index==100000000)\r\n            {\r\n                revert();\r\n            }\r\n        \r\n        uint amount=noOfTickets*300;\r\n        \r\n            if(persons[index].balance >= amount)\r\n            {\r\n                persons[index].balance=persons[index].balance-amount;\r\n                person1.balance+=amount;\r\n                persons[index].noOfTicketsBooked+=noOfTickets;\r\n                \r\n                //person1.noOfTicketsBooked-=noOfTickets;\r\n                \r\n                for(uint j=0;j<noOfTickets;j++)\r\n                {\r\n                map[person1.ticketArray[person1.noOfTicketsBooked-1]]=msg.sender;\r\n                persons[index].ticketArray.push(person1.ticketArray[person1.noOfTicketsBooked-1]);\r\n                //ticket++;\r\n                person1.noOfTicketsBooked-=1;\r\n                person1.ticketArray.length-=1;\r\n                }\r\n                /*uint count=0;\r\n                for(uint t=0;t<person1.ticketArray.length;t++){\r\n                    if(person1.ticketArray[t]==0){\r\n                        person1.ticketArray[t]=1;\r\n                        count++;\r\n                        if(count==noOfTickets){\r\n                        break;\r\n                    }\r\n                    }\r\n                    \r\n                   \r\n                }*/\r\n                \r\n                \r\n                \r\n                \r\n        }\r\n            else\r\n            {\r\n                revert();\r\n            }\r\n        }\r\n            \r\n        else\r\n        {\r\n            //ticketAvailabilty=false;\r\n            revert();\r\n        }\r\n    }\r\n    \r\n    function cancelTicket(uint noOfTickets) public payable\r\n    {\r\n        uint index = 100;\r\n        \r\n        for(uint i = 0;i < registeredPersons;i++)\r\n        {\r\n            if(addrArray[i] == msg.sender)\r\n            {\r\n                index=i;\r\n                break;\r\n            }\r\n            \r\n        }\r\n         if (index==100)\r\n            {\r\n                revert();\r\n            }\r\n      \r\n      \r\n            if(persons[index].personId == msg.sender  && persons[index].noOfTicketsBooked>=noOfTickets)\r\n            {\r\n                uint amount = noOfTickets*300;\r\n                uint cancellationFee = amount/10;\r\n                uint finalAmount = amount-cancellationFee;\r\n                persons[index].balance=persons[index].balance+finalAmount;\r\n                person1.balance-=finalAmount;\r\n                for(uint l=0;l<noOfTickets;l++)\r\n                {\r\n                    map[persons[index].ticketArray[persons[index].noOfTicketsBooked-1]]=person1.personId;\r\n                    person1.ticketArray.push(persons[index].ticketArray[persons[index].noOfTicketsBooked-1]);\r\n                    persons[index].noOfTicketsBooked-=1;\r\n                    person1.noOfTicketsBooked+=1;\r\n                }\r\n                \r\n                //ticket-=noOfTickets;\r\n                \r\n                \r\n                persons[index].ticketArray.length-=noOfTickets;\r\n                \r\n                \r\n                /*person1.noOfTicketsBooked+=1;\r\n                ticketAvailabilty=true;*/\r\n            }\r\n             /*  uint coun=0;\r\n                for(uint t=0;t<person1.ticketArray.length;t++)\r\n                {\r\n                    if(person1.ticketArray[t]==1)\r\n                    {\r\n                        person1.ticketArray[t]=0;\r\n                        coun++;\r\n                        if(coun==noOfTickets)\r\n                        {\r\n                        break;\r\n                        }\r\n                    }\r\n                }    */\r\n            else\r\n            {\r\n            revert();\r\n            }\r\n    \r\n        \r\n    }\r\n        \r\n    function transfer(address to , uint noOfTickets) public payable\r\n    {\r\n        address from = msg.sender;\r\n        uint index1 = 100000000 ;\r\n        uint index2 = 100000000;\r\n        \r\n        \r\n        for(uint i = 0;i < registeredPersons;i++)\r\n        {\r\n            if(addrArray[i] == from)\r\n            {\r\n                index1=i;\r\n                break;\r\n            }\r\n        }\r\n        \r\n        for(uint j = 0;j < registeredPersons;j++)\r\n        {\r\n            if(addrArray[j] == to)\r\n            {\r\n                index2=j;\r\n                break;\r\n            }\r\n        }\r\n        \r\n        if (index1==100000000 || index2==100000000)\r\n        {\r\n            revert();\r\n        }\r\n        \r\n        \r\n        uint cost=noOfTickets*300;\r\n        if(persons[index1].noOfTicketsBooked>=noOfTickets && persons[index2].balance>=cost)\r\n        {\r\n        for(uint l=0;l<noOfTickets;l++)\r\n                {\r\n                    map[persons[index1].ticketArray[persons[index1].noOfTicketsBooked-1]]=to;\r\n                    persons[index2].ticketArray.push(persons[index1].ticketArray[persons[index1].noOfTicketsBooked-1]);\r\n                    persons[index2].noOfTicketsBooked+=1;\r\n                    persons[index1].noOfTicketsBooked-=1;\r\n                }\r\n                 persons[index1].balance+=cost;\r\n                 persons[index2].balance-=cost;\r\n                persons[index1].ticketArray.length-=noOfTickets;\r\n        }\r\n        else\r\n        {\r\n            revert();\r\n        }\r\n    }\r\n}",
  "sourcePath": "G:\\Blockchain\\Smart_City\\contracts\\Ticket.sol",
  "compiler": {
    "name": "solc",
    "version": "0.4.24+commit.e67f0147.Emscripten.clang"
  },
  "schemaVersion": "2.0.1",
  "updatedAt": "2018-12-22T04:38:43.656Z"
}